:020000040800F2
:1000000000000220D50D0008810B00088F0B0008AE
:10001000950B00089B0B0008A10B000800000000D6
:10002000000000000000000000000000A70B000816
:10003000B50B000800000000C30B0008D10B00083E
:10004000250E0008250E0008250E0008250E0008C4
:10005000250E0008250E0008250E0008250E0008B4
:10006000250E0008250E0008250E0008250E0008A4
:10007000250E0008250E0008250E0008250E000894
:10008000250E0008250E0008250E0008250E000884
:10009000250E0008250E0008250E0008250E000874
:1000A000250E0008250E0008250E0008250E000864
:1000B000250E0008250E0008250E0008250E000854
:1000C000250E0008250E0008250E0008250E000844
:1000D000250E0008250E0008250E0008250E000834
:1000E000250E0008250E0008250E0008250E000824
:1000F000250E0008250E0008250E0008250E000814
:10010000250E0008250E0008250E0008250E000803
:10011000250E0008250E0008250E0008250E0008F3
:10012000250E0008250E0008250E0008250E0008E3
:10013000250E0008250E0008250E0008250E0008D3
:10014000250E0008250E0008250E0008250E0008C3
:10015000250E0008250E0008250E0008DD0B0008FE
:10016000250E0008250E0008250E0008250E0008A3
:10017000250E0008250E0008250E000800000000CE
:08018000250E0008250E000801
:1001900010B5054C237833B9044B13B10448AFF3C1
:1001A00000800123237010BD7000002000000000BB
:1001B0005037000808B5034B1BB103490348AFF3A0
:1001C000008008BD000000007400002050370008C7
:1001D00001F0FF01102A2BDB10F0070F08D010F8F8
:1001E000013B013A8B422DD010F0070F42B3F6D1FC
:1001F000F0B441EA012141EA014122F007047FF015
:1002000000070023F0E80256083C85EA010586EA6B
:10021000010685FA47F5A3FA87F586FA47F6A5FAA7
:1002200087F68EB9EED1F0BC01F0FF0102F00702B3
:1002300032B110F8013B013A83EA010313B1F8D15E
:100240000020704701387047002D06BF354603383F
:10025000073815F0010F07D1013015F4807F02BF78
:10026000013015F4C03F0130F0BC0138704700BFC9
:1002700053B94AB9002908BF00281CBF4FF0FF310D
:100280004FF0FF3000F072B9ADF1080C6DE904CE0B
:1002900000F006F8DDF804E0DDE9022304B0704761
:1002A0002DE9F047089E04468846002B4BD18A4230
:1002B000154667D9B2FA82F24AB1C2F1200701FAB3
:1002C00002F320FA07F7954047EA030894404FEA03
:1002D000154E230CB8FBFEF71FFA85FC0EFB1788A2
:1002E00043EA084307FB0CF1994209D9EB1807F1DF
:1002F000FF3080F01B81994240F21881023F2B446D
:100300005B1AA4B2B3FBFEF00EFB103344EA0344C5
:1003100000FB0CFCA44509D92C1900F1FF3380F037
:100320000781A44540F2048102382C4440EA07408A
:10033000A4EB0C0400271EB1D4400023C6E90043FF
:100340003946BDE8F0878B4209D9002E00F0EB80DA
:100350000027C6E9000138463946BDE8F087B3FA00
:1003600083F7002F47D18B4202D3824200F2FA80FA
:10037000841A61EB030301209846002EE0D0C6E901
:100380000048DDE702B9FFDEB2FA82F2002A40F04F
:100390008F80491B4FEA154E1FFA85F80127B1FBE4
:1003A000FEFC230C0EFB1C1143EA014308FB0CF17D
:1003B000994207D9EB180CF1FF3002D2994200F2B2
:1003C000CD808446591AA3B2B1FBFEF00EFB101487
:1003D00043EA044408FB00F8A04507D92C1900F1B2
:1003E000FF3302D2A04500F2B6801846A4EB080401
:1003F00040EA0C409FE7C7F1200CBB4022FA0CFEFC
:100400004EEA030E01FA07F420FA0CF521FA0CF378
:100410004FEA1E482543B3FBF8F92C0C08FB1933AF
:100420001FFA8EFA44EA034309FB0AF49C4202FADB
:1004300007F200FA07F10BD91EEB030309F1FF30B5
:1004400080F087809C4240F28480A9F102097344C5
:100450001B1BADB2B3FBF8F008FB103345EA0344B5
:1004600000FB0AFAA24508D91EEB040400F1FF3391
:100470006BD2A24569D90238744440EA0940A0FB16
:100480000289A4EB0A044C45C2464B4654D351D0D2
:10049000002E69D0B1EB0A0564EB030404FA0CFCEE
:1004A000FD40FC404CEA0505C6E90054002747E73B
:1004B000C2F1200320FA03F7954001FA02F021FA75
:1004C00003F34FEA154E3843010CB3FBFEF71FFA56
:1004D00085F80EFB173341EA034107FB08F38B4213
:1004E00004FA02F407D9691807F1FF3C2FD28B42B6
:1004F0002DD9023F2944CB1A81B2B3FBFEF00EFB8B
:10050000103341EA034100FB08F38B4207D9691815
:1005100000F1FF3C17D28B4215D902382944C91A81
:1005200040EA07473BE73746304609E70746E7E634
:100530001846FBE64145ABD2B8EB020A69EB0E0266
:1005400001381346A4E76046E9E7184695E7674691
:10055000D1E781467CE702382C4447E7ACF1020C36
:100560002B442FE7384608E73746E9E6704700BFD7
:1005700080B500AF062000F00CF800BF80BD80B44D
:1005800083B000AF786000BF0C37BD465DF8047BD8
:10059000704780B582B000AF786000F057FE02214E
:1005A000786800F0B3FF00F073FE00BF0837BD4667
:1005B00080BD000090B587B000AFF860B9607A6088
:1005C00000237B6100F042FE19E07B699B00BA6862
:1005D00013441B684FF000041A462346F9680220B2
:1005E00000F0E0FD0346002B06D1FB680433FB60FE
:1005F0007B6901337B6102E00648FFF7C0FF7A693F
:100600007B689A42E1D300F043FE00BF1C37BD4631
:1006100090BD00BF6837000890B587B000AFF860A4
:10062000B9607A6000237B6100F010FE19E0BA68BF
:100630007B6913441B78DBB24FF000041A46234653
:10064000F968002000F0AEFD0346002B06D1FB68E0
:100650000133FB607B6901337B6102E00648FFF7F1
:100660008EFF7A697B689A42E1D300F011FE00BFE9
:100670001C37BD4690BD00BF6837000880B487B006
:1006800000AFF860B9607A6000237B61FB687B6132
:100690007B691A68BB681A60BB680433BB607B69FE
:1006A00004337B617B685A1E7A60002B00D0EFE731
:1006B00000BF00BF1C37BD465DF8047B70470000DB
:1006C00080B584B000AF0F4B1B681A680E4B134007
:1006D0000E4A934211D10B4B1B6804331B68FB601D
:1006E000FB68BB600A48FFF74AFF0A4B1B687B6048
:1006F0007B6883F30888BB68984700BF1037BD4606
:1007000080BD00BF980000200000FE2F00000220E6
:10071000843700080000020880B584B004AF00F000
:1007200083FB00F03BF9FFF7CBFF00F079F800F016
:10073000FFF800F0D3F82948FFF721FF16230393B1
:100740000C2302931A230193002300930023022217
:100750002349244802F000FC2248FFF710FF2248FA
:10076000FFF70DFF2148FFF70AFFFFF701FF2048C1
:10077000FFF705FF04221F491F4801F032FD1F4803
:10078000FFF7FDFE1E48FFF7FAFE1E4B1B78002BFD
:10079000FBD01C4B00221A701B4B1B8801339AB2F2
:1007A000194B1A80194B1868194B1B781A461149B6
:1007B000FFF732FF174B1B881A46174B1B68013B8C
:1007C0009A4205D31548FFF7DAFE00F0B8FCDCE7E3
:1007D00005220849084801F004FDD6E7A0370008C3
:1007E000E4370008B4000020203800083C38000836
:1007F000503800088003002080050020643800087D
:100800007C380008AE000020940000203C06002048
:100810003A060020380600209000002084370008A7
:1008200080B594B000AF07F12003302200211846B4
:1008300002F089FB07F10C0300221A605A609A60EB
:10084000DA601A610023BB60224B1B6C214A43F023
:10085000805313641F4B1B6C03F08053BB60BB6859
:1008600000237B601C4B1B681B4A43F480431360CE
:10087000194B1B6803F480437B607B6802233B6257
:100880000123FB6210233B630023BB6307F12003BA
:10089000184601F01DF80346002B01D000F0D0F8F7
:1008A0000F23FB6000233B6100237B610023BB61BE
:1008B0000023FB6107F10C030021184601F078FAD0
:1008C0000346002B01D000F0BBF800BF5037BD46F7
:1008D00080BD00BF003802400070004080B500AF0E
:1008E000114B124A1A60104B4FF4E1325A600E4B12
:1008F00000229A600C4B0022DA600B4B00221A6136
:10090000094B0C225A61084B00229A61064B0022C7
:10091000DA61054801F018FC0346002B01D000F015
:100920008FF800BF80BD00BF80050020001401408B
:1009300080B483B000AF00237B60104B1B6B0F4A69
:1009400043F0040313630D4B1B6B03F004037B6044
:100950007B6800233B60094B1B6B084A43F0400354
:100960001363064B1B6B03F040033B603B6800BF07
:100970000C37BD465DF8047B704700BF003802406D
:1009800080B582B000AF0346FB71FB791846FFF7D4
:1009900000FE00BF0837BD4680BD000080B582B0B4
:1009A00000AF00237B6000233B603B1D0122194602
:1009B0001F48FFF763FE7B68B3F1FF3F02D07B68FF
:1009C000002B0ED10420FFF7DBFFBB233B603B462F
:1009D000012219461648FFF7EDFD164B164A1A601C
:1009E00022E07B68AA2B0ED1BB233B600420FFF7DB
:1009F000C7FF3B46012219460D48FFF7DBFD0D4BB3
:100A00000D4A1A6010E07B68BB2B0DD1AA233B6016
:100A10000420FFF7B5FF3B46012219460448FFF7C3
:100A2000C9FD044B054A1A6000BF0837BD4680BDAA
:100A300000000108980000200000020800000A08D9
:100A400080B400AF00BFBD465DF8047B7047000076
:100A500080B483B000AF00237B60104B5B6C0F4A07
:100A600043F4804353640D4B5B6C03F480437B6021
:100A70007B6800233B60094B1B6C084A43F08053A2
:100A80001364064B1B6C03F080533B603B6800BF54
:100A90000C37BD465DF8047B704700BF003802404C
:100AA00080B58AB000AF786007F1140300221A60A5
:100AB0005A609A60DA601A617B681B682C4A93421C
:100AC00052D100233B612B4B5B6C2A4A43F020033D
:100AD0005364284B5B6C03F020033B613B690023AC
:100AE000FB60244B1B6B234A43F004031363214B2D
:100AF0001B6B03F00403FB60FB680023BB601D4B12
:100B00001B6B1C4A43F0400313631A4B1B6B03F02F
:100B10004003BB60BB6840237B610223BB610123B0
:100B2000FB6103233B6208237B6207F11403194630
:100B3000114800F033FD4FF400737B610223BB6169
:100B40000123FB6103233B6208237B6207F114034B
:100B500019460A4800F022FD00220021472000F03B
:100B6000C4FA472000F0DDFA00BF2837BD4680BD3B
:100B70000014014000380240000802400018024002
:100B800080B400AF00BFBD465DF8047B704780B401
:100B900000AFFEE780B400AFFEE780B400AFFEE731
:100BA00080B400AFFEE780B400AF00BFBD465DF883
:100BB000047B704780B400AF00BFBD465DF8047B86
:100BC000704780B400AF00BFBD465DF8047B70473E
:100BD00080B500AF00F07AF900BF80BD80B500AFEE
:100BE000024801F0ABFB00BF80BD00BF80050020C4
:100BF00080B582B000AF78607B684B4A934240F08A
:100C00008E80494801F042FB484B1B78022B05D8E7
:100C1000464B1B780133DAB2444B1A70434B1B78B6
:100C2000022B3ED9424B1B780133DAB2404B1A708B
:100C30003F4B1B78012B02D0022B21D070E03A48A9
:100C400001F024FB3B4B1B781A063A4B5B781B04E4
:100C50001A43384B9B781B021343364AD27813430E
:100C60001A46354B1A60334B1A79344B1A70334B92
:100C70001B789BB21A462F492B4801F0B2FA4FE07D
:100C80002B4B00221A70284801F000FB2C4B01224C
:100C90001A702C4B1B8801339AB22A4B1A8000BF62
:100CA0003EE0224B1B78012B02D0022B1AD037E0FA
:100CB0001D4801F0EBFA1F4B1B781A061D4B5B78A1
:100CC0001B041A431B4B9B781B021343194AD2780F
:100CD00013431A461C4B1A6004221649124801F0AD
:100CE00080FA1DE0104801F0D1FA124B1B781A0669
:100CF000104B5B781B041A430E4B9B781B0213436B
:100D00000C4AD27813431A46104B1A60052209493F
:100D1000054801F066FA054B03221A7000E000BF97
:100D200000BF0837BD4680BD800500208C00002034
:100D3000A4060020800300203C0600203A06002084
:100D4000AE00002038060020900000209C0000200B
:100D500080B584B000AF7860114B1B68002B02D1C6
:100D60000F4B104A1A600E4B1B68FB600C4B1A6845
:100D70007B6813446A46934207D902F0AFF80246F3
:100D80000C2313604FF0FF3306E0054B1A687B68B5
:100D90001344034A1360FB6818461037BD4680BDF4
:100DA000A0000020D006002080B400AF084BD3F88C
:100DB0008830074A43F47003C2F88830044B4FF080
:100DC00000629A6000BFBD465DF8047B704700BFBB
:100DD00000ED00E0DFF834D0002103E00C4B5B585D
:100DE000435004310B480C4B42189A42F6D30B4A3D
:100DF00002E0002342F8043B094B9A42F9D3FFF783
:100E0000D3FF02F071F8FFF787FC70470000022063
:100E10000039000800000020700000207000002051
:100E2000D0060020FEE7000080B500AF0E4B1B6827
:100E30000D4A43F4007313600B4B1B680A4A43F4DA
:100E400080631360084B1B68074A43F48073136088
:100E5000032000F03FF9002000F008F8FFF7F8FD4C
:100E60000023184680BD00BF003C024080B582B020
:100E700000AF7860124B1A68124B1B7819464FF47A
:100E80007A73B3FBF1F3B2FBF3F3184600F05BF9AE
:100E90000346002B01D001230EE07B680F2B0AD8FC
:100EA000002279684FF0FF3000F01FF9064A7B6896
:100EB0001360002300E0012318460837BD4680BDBB
:100EC00000000020080000200400002080B400AFD3
:100ED000064B1B781A46064B1B681344044A1360E2
:100EE00000BFBD465DF8047B704700BF08000020CE
:100EF000A806002080B400AF034B1B681846BD460F
:100F00005DF8047B704700BFA806002080B485B060
:100F100000AF78607B6803F00703FB600C4BDB6875
:100F2000BB60BA684FF6FF031340BB60FB681A0250
:100F3000BB68134343F0BF6343F40033BB60044A10
:100F4000BB68D36000BF1437BD465DF8047B7047B3
:100F500000ED00E080B400AF044BDB681B0A03F037
:100F600007031846BD465DF8047B704700ED00E0BE
:100F700080B483B000AF0346FB7197F90730002BB4
:100F80000BDBFB7903F01F02074997F907305B0978
:100F9000012000FA02F241F8232000BF0C37BD46C1
:100FA0005DF8047B704700BF00E100E080B483B0CF
:100FB00000AF03463960FB7197F90730002B0ADB5D
:100FC0003B68DAB20C4997F907301201D2B20B44F0
:100FD00083F800230AE03B68DAB20849FB7903F0A2
:100FE0000F03043B1201D2B20B441A7600BF0C3738
:100FF000BD465DF8047B704700E100E000ED00E0D5
:1010000080B489B000AFF860B9607A60FB6803F023
:101010000703FB61FB69C3F10703042B28BF04230B
:10102000BB61FB690433062B02D9FB69033B00E07B
:1010300000237B614FF0FF32BB6902FA03F3DA430E
:10104000BB681A407B699A404FF0FF317B6901FA17
:1010500003F3D9437B680B40134318462437BD463E
:101060005DF8047B7047000080B400AFBFF34F8F82
:10107000054BDB6803F4E0620349044B1343CB6088
:10108000BFF34F8F00BFFDE700ED00E00400FA055D
:1010900080B582B000AF78607B68013BB3F1807FA0
:1010A00001D301230FE00A4A7B68013B53600F2103
:1010B0004FF0FF30FFF77AFF054B00229A60044B98
:1010C00007221A60002318460837BD4680BD00BFBE
:1010D00010E000E080B582B000AF78607868FFF77C
:1010E00015FF00BF0837BD4680BD80B586B000AF94
:1010F0000346B9607A60FB7300237B61FFF72AFF28
:1011000078617A68B9687869FFF77AFF024697F9DB
:101110000F3011461846FFF749FF00BF1837BD468C
:1011200080BD80B582B000AF0346FB7197F90730F0
:101130001846FFF71DFF00BF0837BD4680BD80B5CC
:1011400000AFFFF791FF80B582B000AF786078689C
:10115000FFF79EFF034618460837BD4680BD80B4A2
:1011600083B000AF78607B6893F83530DBB2022B38
:1011700004D07B6880225A6501230CE07B6805223D
:1011800083F835207B681B681A687B681B6822F02F
:1011900001021A60002318460C37BD465DF8047B37
:1011A0007047000080B586B000AFF860B960C7E94D
:1011B00000230123FB75234B1B7E012B01D102234E
:1011C0003BE0204B01221A764CF2503000F070F8D0
:1011D0000346FB75FB7D002B2BD1FB68002B05D153
:1011E0003B781946B86800F019F916E0FB68012B46
:1011F00005D13B881946B86800F0ECF80DE0FB68B3
:10120000022B05D13B681946B86800F0C1F804E02C
:10121000D7E90023B86800F08BF84CF2503000F0AA
:1012200047F80346FB75084B1B69074A23F0010387
:101230001361044B00221A76FB7D18461837BD4611
:1012400080BD00BFAC060020003C024080B483B0EB
:1012500000AF0023FB710B4B1B69002B0BDA094B12
:10126000094A5A60074B094A5A60064B1B69002B12
:1012700001DA0123FB71FB7918460C37BD465DF896
:10128000047B7047003C024023016745AB89EFCDEA
:1012900080B400AF054B1B69044A43F0004313615F
:1012A00000231846BD465DF8047B7047003C0240B1
:1012B00080B584B000AF78600023FB601A4B002239
:1012C000DA61FFF717FEF86010E07B68B3F1FF3FCB
:1012D0000CD07B68002B07D0FFF70CFE0246FB68A2
:1012E000D31A7A689A4201D2032319E00F4BDB68C4
:1012F00003F48033002BE8D10C4BDB6803F00103CF
:10130000002B02D0094B0122DA60084BDB6803F0A6
:10131000F203002B03D000F0A3F8012300E0002328
:1013200018461037BD4680BDAC060020003C024088
:1013300090B484B000AFF860C7E90023134B1B6979
:10134000124A23F440731361104B1B690F4A43F494
:10135000407313610D4B1B690C4A43F00103136189
:10136000FB683A681A60BFF36F8FD7E900124FF03D
:1013700000034FF0000413000024FA6804321360E5
:1013800000BF1037BD4690BC704700BF003C024014
:1013900080B483B000AF786039600D4B1B690C4A94
:1013A00023F4407313610A4B1B69094A43F4007329
:1013B0001361074B1B69064A43F0010313617B6805
:1013C0003A681A6000BF0C37BD465DF8047B704771
:1013D000003C024080B483B000AF78600B467B8055
:1013E0000D4B1B690C4A23F4407313610A4B1B69B4
:1013F000094A43F480731361074B1B69064A43F0A3
:10140000010313617B687A881A8000BF0C37BD46E0
:101410005DF8047B704700BF003C024080B483B09D
:1014200000AF78600B46FB700C4B1B690B4A23F432
:1014300040731361094B094A1B691361074B1B6910
:10144000064A43F0010313617B68FA781A7000BF03
:101450000C37BD465DF8047B704700BF003C02407E
:1014600080B400AF274BDB6803F01003002B08D0DB
:10147000254BDB6943F01003234AD361214B102233
:10148000DA60204BDB6803F02003002B08D01E4BF2
:10149000DB6943F008031C4AD3611A4B2022DA604F
:1014A000184BDB6803F04003002B08D0164BDB69B8
:1014B00043F00403144AD361124B4022DA60114B0B
:1014C000DB6803F08003002B08D00F4BDB6943F08F
:1014D00002030D4AD3610B4B8022DA60094BDB68B3
:1014E00003F00203002B08D0074BDB6943F0200315
:1014F000054AD361034B0222DA6000BFBD465DF8A6
:10150000047B7047003C0240AC06002080B485B0EC
:1015100000AF78600B46FB700023FB60FB78002B6C
:1015200002D10023FB6010E0FB78012B03D14FF4C4
:101530008073FB6009E0FB78022B03D14FF400734A
:10154000FB6002E04FF44073FB60134B1B69124ACF
:1015500023F440731361104B1A690F49FB6813435E
:101560000B610D4B1B690C4A23F0F80313610A4B06
:101570001A697B68DB001343074A43F002031361D7
:10158000054B1B69044A43F48033136100BF1437D1
:10159000BD465DF8047B7047003C024080B489B0D2
:1015A00000AF7860396000237B6100233B6100233A
:1015B000BB610023FB616BE10122FB6902FA03F3CB
:1015C0007B613B681B687A6913403B613A697B69C0
:1015D0009A4240F05A813B685B68012B0BD03B6814
:1015E0005B68022B07D03B685B68112B03D03B681C
:1015F0005B68122B30D17B689B68BB61FB695B0029
:10160000032202FA03F3DB43BA691340BB613B6870
:10161000DA68FB695B0002FA03F3BA691343BB6142
:101620007B68BA699A607B685B68BB610122FB6971
:1016300002FA03F3DB43BA691340BB613B685B68A2
:101640001B0903F00102FB6902FA03F3BA691343B1
:10165000BB617B68BA695A607B68DB68BB61FB6908
:101660005B00032202FA03F3DB43BA691340BB6158
:101670003B689A68FB695B0002FA03F3BA6913439B
:10168000BB617B68BA69DA603B685B68022B03D098
:101690003B685B68122B23D1FB69DA087B68083250
:1016A00053F82230BB61FB6903F007039B000F2254
:1016B00002FA03F3DB43BA691340BB613B681A6962
:1016C000FB6903F007039B0002FA03F3BA691343B3
:1016D000BB61FB69DA087B680832B96943F82210FC
:1016E0007B681B68BB61FB695B00032202FA03F3A2
:1016F000DB43BA691340BB613B685B6803F00302DC
:10170000FB695B0002FA03F3BA691343BB617B68B0
:10171000BA691A603B685B6803F08053002B00F0E5
:10172000B4800023FB605F4B5B6C5E4A43F48043F4
:1017300053645C4B5B6C03F48043FB60FB685A4A68
:10174000FB699B08023352F82330BB61FB6903F04D
:1017500003039B000F2202FA03F3DB43BA69134031
:10176000BB617B68514A93422BD07B68504A9342BD
:1017700025D07B684F4A93421FD07B684E4A9342E4
:1017800019D07B684D4A934213D07B684C4A9342F0
:101790000DD07B684B4A934207D07B684A4A9342FC
:1017A00001D107230EE008230CE006230AE00523FD
:1017B00008E0042306E0032304E0022302E00123FF
:1017C00000E00023FA6902F0030292009340BA6934
:1017D0001343BB613449FB699B080233BA6941F882
:1017E00023203A4B1B68BB613B69DB43BA6913405A
:1017F000BB613B685B6803F48033002B03D0BA699C
:101800003B691343BB61314ABB6913602F4B5B6873
:10181000BB613B69DB43BA691340BB613B685B68F2
:1018200003F40033002B03D0BA693B691343BB6157
:10183000264ABB695360254B9B68BB613B69DB4310
:10184000BA691340BB613B685B6803F48013002BEB
:1018500003D0BA693B691343BB611C4ABB699360FF
:101860001A4BDB68BB613B69DB43BA691340BB6160
:101870003B685B6803F40013002B03D0BA693B6933
:101880001343BB61114ABB69D360FB690133FB6140
:10189000FB690F2B7FF690AE00BF2437BD465DF885
:1018A000047B7047003802400038014000000240CD
:1018B0000004024000080240000C024000100240F8
:1018C0000014024000180240001C0240003C01408D
:1018D00080B586B000AF78607B68002B01D1012312
:1018E0005BE27B681B6803F00103002B75D0A34B00
:1018F0009B6803F00C03042B0CD0A04B9B6803F0F7
:101900000C03082B12D19D4B5B6803F48003B3F5E5
:10191000800F0BD1994B1B6803F40033002B5BD075
:101920007B685B68002B57D1012336E27B685B68DC
:10193000B3F5803F06D1914B1B68904A43F4803346
:1019400013601DE07B685B68B3F5A02F0CD18B4B57
:101950001B688A4A43F480231360884B1B68874ABC
:1019600043F4803313600BE0844B1B68834A23F4F9
:1019700080331360814B1B68804A23F480231360FB
:101980007B685B68002B13D0FFF7B4FA386108E07E
:10199000FFF7B0FA02463B69D31A642B01D903233F
:1019A000FBE1764B1B6803F40033002BF0D014E00E
:1019B000FFF7A0FA386108E0FFF79CFA02463B699E
:1019C000D31A642B01D90323E7E16C4B1B6803F4A2
:1019D0000033002BF0D100E000BF7B681B6803F0F0
:1019E0000203002B63D0654B9B6803F00C03002BB4
:1019F0000BD0624B9B6803F00C03082B1CD15F4B90
:101A00005B6803F48003002B16D15C4B1B6803F06A
:101A10000203002B05D07B68DB68012B01D001237A
:101A2000BBE1564B1B6823F0F8027B681B69DB00A7
:101A3000524913430B603AE07B68DB68002B20D0EF
:101A40004F4B01221A60FFF755FA386108E0FFF7A3
:101A500051FA02463B69D31A022B01D903239CE1B8
:101A6000464B1B6803F00203002BF0D0434B1B686E
:101A700023F0F8027B681B69DB00404913430B60CD
:101A800015E03F4B00221A60FFF734FA386108E096
:101A9000FFF730FA02463B69D31A022B01D9032320
:101AA0007BE1364B1B6803F00203002BF0D17B680F
:101AB0001B6803F00803002B30D07B685B69002BA8
:101AC00016D0304B01221A60FFF714FA386108E093
:101AD000FFF710FA02463B69D31A022B01D9032300
:101AE0005BE1264B5B6F03F00203002BF0D015E0A7
:101AF000244B00221A60FFF7FDF9386108E0FFF778
:101B0000F9F902463B69D31A022B01D9032344E1B8
:101B10001A4B5B6F03F00203002BF0D17B681B684C
:101B200003F00403002B00F0A0800023FB75134B8F
:101B30001B6C03F08053002B0FD10023BB600F4BB5
:101B40001B6C0E4A43F0805313640C4B1B6C03F068
:101B50008053BB60BB680123FB750B4B1B6803F410
:101B60008073002B21D1084B1B68074A43F4807314
:101B70001360FFF7BFF9386111E000BF0038024081
:101B800000004742800E474200700040FFF7B2F964
:101B900002463B69D31A022B01D90323FDE0814B96
:101BA0001B6803F48073002BF0D07B689B68012BCB
:101BB00006D17D4B1B6F7C4A43F0010313671CE089
:101BC0007B689B68052B0CD1774B1B6F764A43F0E3
:101BD00004031367744B1B6F734A43F001031367CD
:101BE0000BE0714B1B6F704A23F0010313676E4BC0
:101BF0001B6F6D4A23F0040313677B689B68002BFF
:101C000015D0FFF777F938610AE0FFF773F902465C
:101C10003B69D31A41F28832934201D90323BCE0D5
:101C2000614B1B6F03F00203002BEED014E0FFF7B3
:101C300061F938610AE0FFF75DF902463B69D31AA2
:101C400041F28832934201D90323A6E0564B1B6F21
:101C500003F00203002BEED1FB7D012B05D1524B8B
:101C60001B6C514A23F0805313647B689B69002BE3
:101C700000F092804C4B9B6803F00C03082B5CD067
:101C80007B689B69022B41D1484B00221A60FFF709
:101C900031F9386108E0FFF72DF902463B69D31AA4
:101CA000022B01D9032378E03F4B1B6803F000733C
:101CB000002BF0D17B68DA697B681B6A1A437B686A
:101CC0005B6A9B011A437B689B6A5B08013B1B04B0
:101CD0001A437B68DB6A1B06334913434B60334B63
:101CE00001221A60FFF706F9386108E0FFF702F9F0
:101CF00002463B69D31A022B01D903234DE02A4B3C
:101D00001B6803F00073002BF0D045E0274B002246
:101D10001A60FFF7EFF8386108E0FFF7EBF80246CA
:101D20003B69D31A022B01D9032336E01E4B1B68F3
:101D300003F00073002BF0D12EE07B689B69012B30
:101D400001D1012329E0184B9B68FB60FB6803F479
:101D500080027B68DB699A421CD1FB6803F03F027A
:101D60007B681B6A9A4215D1FA6847F6C073134024
:101D70007A68526A93420DD1FB6803F440327B6863
:101D80009B6A9A4206D1FB6803F070627B68DB6A4B
:101D90009A4201D0012300E0002318461837BD46BF
:101DA00080BD00BF00700040003802406000474224
:101DB00080B584B000AF786039607B68002B01D1BA
:101DC0000123CCE0684B1B6803F00F033A689A428A
:101DD0000CD9654B3A68D2B21A70634B1B6803F09A
:101DE0000F033A689A4201D00123B8E07B681B6870
:101DF00003F00203002B20D07B681B6803F0040370
:101E0000002B05D0594B9B68584A43F4E05393602C
:101E10007B681B6803F00803002B05D0534B9B68BD
:101E2000524A43F460439360504B9B6823F0F002A6
:101E30007B689B684D4913438B607B681B6803F08C
:101E40000103002B44D07B685B68012B07D1474B13
:101E50001B6803F40033002B19D101237FE07B685A
:101E60005B68022B03D07B685B68032B07D13F4B79
:101E70001B6803F00073002B09D101236FE03B4B7B
:101E80001B6803F00203002B01D1012367E0374BED
:101E90009B6823F003027B685B68344913438B60C3
:101EA000FFF728F8F8600AE0FFF724F80246FB681D
:101EB000D31A41F28832934201D903234FE02B4BCE
:101EC0009B6803F00C027B685B689B009A42EBD135
:101ED000254B1B6803F00F033A689A420CD2224B41
:101EE0003A68D2B21A70204B1B6803F00F033A68AD
:101EF0009A4201D0012332E07B681B6803F004039F
:101F0000002B08D0194B9B6823F4E0527B68DB68F8
:101F1000164913438B607B681B6803F00803002B92
:101F200009D0124B9B6823F460427B681B69DB007D
:101F30000E4913438B6000F021F801460B4B9B6860
:101F40001B0903F00F030A4AD35C21FA03F3094A81
:101F50001360094B1B681846FEF788FF00231846DC
:101F60001037BD4680BD00BF003C02400038024033
:101F7000A43800080000002004000020F0B585B05F
:101F800000AF00237B600023FB6000233B60002345
:101F9000BB60504B9B6803F00C03042B07D0082B4D
:101FA00008D0002B40F08D804B4BBB608CE04B4B3E
:101FB000BB6089E0474B5B6803F03F037B60454BA8
:101FC0005B6803F48003002B23D0424B5B689B09C2
:101FD0004FF0000440F2FF114FF0000203EA010548
:101FE00004EA02063D4A02FB06F1002202FB05F26A
:101FF0000A443A49A5FB0101531819467B684FF082
:1020000000041A462346FEF733F903460C46FB60EC
:1020100049E0304B5B689B094FF0000440F2FF1130
:102020004FF0000203EA010504EA0206294632469F
:102030004FF000034FF00004540144EAD1644B0117
:1020400019462246491B62EB06024FF000034FF08F
:102050000004940144EA91648B015B1A64EB02046E
:102060004FF000014FF00002E20042EA5372D90043
:102070000B4614465B1944EB06044FF000014FF089
:102080000002A20242EA935299020B4614461846F5
:1020900021467B684FF000041A462346FEF7E8F815
:1020A00003460C46FB600B4B5B681B0C03F0030301
:1020B00001335B003B60FA683B68B2FBF3F3BB6043
:1020C00002E0054BBB6000BFBB6818461437BD4635
:1020D000F0BD00BF003802400024F40040787D01CC
:1020E00080B400AF034B1B681846BD465DF8047B07
:1020F000704700BF0000002080B500AFFFF7F0FF81
:102100000146054B9B689B0A03F00703034AD35C17
:1021100021FA03F3184680BD00380240B4380008A5
:1021200080B500AFFFF7DCFF0146054B9B685B0BFA
:1021300003F00703034AD35C21FA03F3184680BD7A
:1021400000380240B438000880B582B000AF786033
:102150007B68002B01D101233FE07B6893F8393085
:10216000DBB2002B06D17B68002283F83820786828
:10217000FEF796FC7B68242283F839207B681B6875
:10218000DA687B681B6822F40052DA60786800F035
:1021900029FB7B681B681A697B681B6822F49042E4
:1021A0001A617B681B685A697B681B6822F02A02E7
:1021B0005A617B681B68DA687B681B6842F40052CE
:1021C000DA607B680022DA637B68202283F839209A
:1021D0007B68202283F83A20002318460837BD4642
:1021E00080BD80B485B000AFF860B9601346FB8055
:1021F000FB6893F83A30DBB2202B40D1BB68002B50
:1022000002D0FB88002B01D1012339E0FB6893F851
:102210003830012B01D1022332E0FB68012283F820
:102220003820FB68BA689A62FB68FA889A85FB686E
:10223000FA88DA85FB680022DA63FB68222283F8D9
:102240003A20FB68002283F83820FB681B68DA68B4
:10225000FB681B6842F48072DA60FB681B685A698D
:10226000FB681B6842F001025A61FB681B68DA6870
:10227000FB681B6842F02002DA60002300E00223C2
:1022800018461437BD465DF8047B704780B582B0B0
:1022900000AF78607B681B68DA687B681B6822F493
:1022A0009072DA607B681B685A697B681B6822F051
:1022B00001025A617B681B685B6903F04003402B95
:1022C0002AD17B681B685A697B681B6822F0400230
:1022D0005A617B685B6B002B13D07B685B6B164A83
:1022E0001A657B685B6B1846FEF739FF0346002BC7
:1022F0001CD07B685B6B1B6D7A68526B10469847ED
:1023000014E07B680022DA857B68202283F83A207B
:10231000786800F027F909E07B680022DA857B689D
:10232000202283F83A20786800F01CF90023184630
:102330000837BD4680BD00BFDD25000880B588B0E8
:1023400000AF78607B681B681B68FB617B681B685B
:10235000DB68BB617B681B685B697B6100233B6159
:102360000023FB60FB6903F00F033B613B69002B1B
:102370000DD1FB6903F02003002B08D0BB6903F0EB
:102380002003002B03D0786800F0ABF9D1E03B6963
:10239000002B00F0B0807B6903F00103002B05D116
:1023A000BB6903F49073002B00F0A580FB6903F078
:1023B0000103002B0AD0BB6903F48073002B05D006
:1023C0007B68DB6B43F001027B68DA63FB6903F037
:1023D0000403002B0AD07B6903F00103002B05D016
:1023E0007B68DB6B43F002027B68DA63FB6903F016
:1023F0000203002B0AD07B6903F00103002B05D0F8
:102400007B68DB6B43F004027B68DA63FB6903F0F3
:102410000803002B0FD0BB6903F02003002B04D16D
:102420007B6903F00103002B05D07B68DB6B43F075
:1024300008027B68DA637B68DB6B002B78D0FB6972
:1024400003F02003002B07D0BB6903F02003002B0F
:1024500002D0786800F045F97B681B685B6903F07F
:102460004003402B0CBF01230023DBB2FB607B68E1
:10247000DB6B03F00803002B02D1FB68002B31D08B
:10248000786800F079F87B681B685B6903F04003AB
:10249000402B23D17B681B685A697B681B6822F03C
:1024A00040025A617B685B6B002B13D07B685B6BCF
:1024B000214A1A657B685B6B1846FEF750FE03469F
:1024C000002B16D07B685B6B1B6D7A68526B1046D5
:1024D00098470EE0786800F03BF80AE0786800F072
:1024E00037F806E0786800F033F87B680022DA639A
:1024F0001EE000BF1CE0FB6903F08003002B08D046
:10250000BB6903F08003002B03D0786800F07BF8F0
:102510000FE0FB6903F04003002B0AD0BB6903F016
:102520004003002B05D0786800F0C3F800BF00E03E
:1025300000BF2037BD4680BDB525000880B483B0FC
:1025400000AF786000BF0C37BD465DF8047B704774
:1025500080B483B000AF786000BF0C37BD465DF833
:10256000047B704780B483B000AF786000BF0C3745
:10257000BD465DF8047B704780B483B000AF7860DF
:102580007B681B68DA687B681B6822F49072DA60EB
:102590007B681B685A697B681B6822F001025A61DC
:1025A0007B68202283F83A2000BF0C37BD465DF8D7
:1025B000047B704780B584B000AF78607B689B6B0C
:1025C000FB60FB680022DA85FB680022DA84F86889
:1025D000FFF7BEFF00BF1037BD4680BD80B584B099
:1025E00000AF78607B689B6BFB60FB680022DA853C
:1025F000FB68202283F83A20F868FFF7B3FF00BF9A
:102600001037BD4680BD80B485B000AF78607B6870
:1026100093F83930DBB2212B44D17B689B68B3F54A
:10262000805F1AD17B681B6AFB60FB681B881A46B7
:102630007B681B68C2F308025A607B681B69002B29
:1026400005D17B681B6A9A1C7B681A620EE07B6866
:102650001B6A5A1C7B681A6208E07B681B6A591C5B
:102660007A6811621A787B681B685A607B68DB8C19
:102670009BB2013B9BB27A681946D184002B0FD1E3
:102680007B681B68DA687B681B6822F08002DA606E
:102690007B681B68DA687B681B6842F04002DA607E
:1026A000002300E0022318461437BD465DF8047B82
:1026B000704780B582B000AF78607B681B68DA68CD
:1026C0007B681B6822F04002DA607B68202283F876
:1026D00039207868FFF732FF002318460837BD46D7
:1026E00080BD80B584B000AF78607B6893F83A30E5
:1026F000DBB2222B71D17B689B68B3F5805F23D15D
:102700007B689B6AFB607B681B69002B0ED17B6832
:102710001B685B689BB2C3F308039AB2FB681A801C
:102720007B689B6A9A1C7B689A6229E07B681B68BD
:102730005B689BB2DBB29AB2FB681A807B689B6ACB
:102740005A1C7B689A621BE07B681B69002B0AD1CC
:102750007B681B6858687B689B6A591C7A68916221
:10276000C2B21A700CE07B681B685B68DAB27B68E7
:102770009B6A581C7968886202F07F02D2B21A7094
:102780007B68DB8D9BB2013B9BB27A681946D18591
:10279000002B20D17B681B68DA687B681B6822F0FD
:1027A0002002DA607B681B68DA687B681B6822F4A9
:1027B0008072DA607B681B685A697B681B6822F04C
:1027C00001025A617B68202283F83A207868FEF77C
:1027D0000FFA002302E0002300E00223184610371E
:1027E000BD4680BD2DE9F04F85B000AF78607B68B5
:1027F0001B681B6923F440517B68DA687B681B689F
:102800000A431A617B689A687B681B691A437B6874
:102810005B691A437B68DB691343FB607B681B6859
:10282000DB6823F4164323F00C037A681268F96816
:102830000B43D3607B681B685B6923F440717B6842
:102840009A697B681B680A435A617B68DB69B3F548
:10285000004F40F08B817B681B68C14A934205D0D2
:102860007B681B68BF4A934240F0BD80FFF758FC6D
:10287000B860BB681D464FF00006A846B14618EB8D
:10288000080349EB09049846A14618EB050849EBF3
:1028900006094FF000014FF000024FEAC90242EA78
:1028A00058724FEAC8018846914618EB050049EB7B
:1028B00006017B685B681D464FF000066B1946EB0E
:1028C00006041A462346FDF7D3FC03460C461A4677
:1028D000A54BA3FB02235B094FEA0318BB681D4607
:1028E0004FF00006A946B24619EB09034AEB0A0469
:1028F0009946A24619EB05094AEB060A4FF000017A
:102900004FF000024FEACA0242EA59724FEAC90187
:102910008946924619EB05004AEB06017B685B6825
:102920001D464FF000066B1946EB06041A46234677
:10293000FDF79EFC03460C461A468B4BA3FB021385
:102940005B09642101FB03F3D31ADB003233864AAF
:10295000A2FB03235B095B0003F4F8739844BB6894
:102960001D464FF00006A946B24619EB09034AEB93
:102970000A049946A24619EB05094AEB060A4FF0EC
:1029800000014FF000024FEACA0242EA59724FEAD0
:10299000C9018946924619EB05004AEB06017B689E
:1029A0005B681D464FF000066B1946EB06041A469D
:1029B0002346FDF75DFC03460C461A466A4BA3FB13
:1029C00002135B09642101FB03F3D31ADB003233EA
:1029D000654AA2FB03235B0903F007027B681B68BF
:1029E00042449A606FE2FFF787FBB860BB681D4600
:1029F0004FF00006A846B14618EB080349EB09045E
:102A00009846A14618EB050849EB06094FF000016E
:102A10004FF000024FEAC90242EA58724FEAC80179
:102A20008846914618EB050049EB06017B685B6818
:102A30001D464FF000066B1946EB06041A46234666
:102A4000FDF716FC03460C461A46474BA3FB022330
:102A50005B094FEA0318BB681D464FF00006A94604
:102A6000B24619EB09034AEB0A049946A24619EB50
:102A700005094AEB060A4FF000014FF000024FEA49
:102A8000CA0242EA59724FEAC9018946924619EBD5
:102A900005004AEB06017B685B681D464FF00006A7
:102AA0006B1946EB06041A462346FDF7E1FB034685
:102AB0000C461A462C4BA3FB02135B09642101FB55
:102AC00003F3D31ADB003233274AA2FB03235B094B
:102AD0005B0003F4F8739844BB681D464FF0000692
:102AE000A946B24619EB09034AEB0A049946A246E5
:102AF00019EB05094AEB060A4FF000014FF00002FE
:102B00004FEACA0242EA59724FEAC901894692461F
:102B100019EB05004AEB06017B685B681D464FF028
:102B200000066B1946EB06041A462346FDF7A0FB88
:102B300003460C461A460C4BA3FB02135B096421A7
:102B400001FB03F3D31ADB003233074AA2FB032352
:102B50005B0903F007027B681B6842449A60B2E19C
:102B600000100140001401401F85EB517B681B6879
:102B7000D74A934205D07B681B68D64A934240F0FF
:102B8000D180FFF7CDFAB860BB689A464FF0000BD2
:102B9000D046D94618EB080349EB09049846A146EC
:102BA00018EB0A0849EB0B094FF000014FF0000247
:102BB0004FEAC90242EA58724FEAC8018846914674
:102BC0001AEB08054BEB09067B685B6819464FF06A
:102BD00000024FF000034FF00004940044EA9174A7
:102BE0008B001A46234628463146FDF741FB034633
:102BF0000C461A46B84BA3FB02235B094FEA0318A5
:102C0000BB689B464FF0000CD946E24619EB09031E
:102C10004AEB0A049946A24619EB0B094AEB0C0A47
:102C20004FF000014FF000024FEACA0242EA597227
:102C30004FEAC901894692461BEB09054CEB0A068F
:102C40007B685B6819464FF000024FF000034FF0BD
:102C50000004940044EA91748B001A4623462846E7
:102C60003146FDF705FB03460C461A469A4BA3FB7B
:102C700002135B09642101FB03F3D31A1B013233F6
:102C8000954AA2FB03235B0903F0F0039844BB6859
:102C90009B464FF0000CD946E24619EB09034AEB7C
:102CA0000A049946A24619EB0B094AEB0C0A4FF0AD
:102CB00000014FF000024FEACA0242EA59724FEA9D
:102CC000C901894692461BEB09054CEB0A067B6855
:102CD0005B6819464FF000024FF000034FF000040C
:102CE000940044EA91748B001A46234628463146E4
:102CF000FDF7BEFA03460C461A46774BA3FB0213B8
:102D00005B09642101FB03F3D31A1B013233724ABE
:102D1000A2FB03235B0903F00F027B681B6842449C
:102D20009A60D0E0FFF7E8F9B860BB689A464FF0C8
:102D3000000BD046D94618EB080349EB0904984626
:102D4000A14618EB0A0849EB0B094FF000014FF0C0
:102D500000024FEAC90242EA58724FEAC8018846A7
:102D600091461AEB08054BEB09067B685B68194630
:102D70004FF000024FF000034FF00004940044EACB
:102D800091748B001A46234628463146FDF770FAA7
:102D900003460C461A46504BA3FB02235B094FEA3D
:102DA0000318BB689B464FF0000CD946E24619EB6E
:102DB00009034AEB0A049946A24619EB0B094AEBB0
:102DC0000C0A4FF000014FF000024FEACA0242EA3B
:102DD00059724FEAC901894692461BEB09054CEB33
:102DE0000A067B685B6819464FF000024FF000034B
:102DF0004FF00004940044EA91748B001A46234675
:102E000028463146FDF734FA03460C461A46324B43
:102E1000A3FB02135B09642101FB03F3D31A1B011B
:102E200032332D4AA2FB03235B0903F0F0039844DD
:102E3000BB689B464FF0000CD946E24619EB0903EC
:102E40004AEB0A049946A24619EB0B094AEB0C0A15
:102E50004FF000014FF000024FEACA0242EA5972F5
:102E60004FEAC901894692461BEB09054CEB0A065D
:102E70007B685B6819464FF000024FF000034FF08B
:102E80000004940044EA91748B001A4623462846B5
:102E90003146FDF7EDF903460C461A460E4BA3FBEF
:102EA00002135B09642101FB03F3D31A1B013233C4
:102EB000094AA2FB03235B0903F00F027B681B682E
:102EC00042449A60FFE700BF1437BD46BDE8F08F6B
:102ED00000100140001401401F85EB51014B1868A0
:102EE000704700BF0C00002070B50D4E0D4CA41BA8
:102EF000A4100025A54209D10B4E0C4C00F028FC73
:102F0000A41BA4100025A54205D170BD56F825309C
:102F100098470135EEE756F8253098470135F2E736
:102F2000F8380008F8380008F8380008FC380008BD
:102F300010B5431E0A44914200D110BD11F8014B57
:102F400003F8014FF7E702440346934200D170476C
:102F500003F8011BF9E700000EB400B59CB01DABEF
:102F6000029006906FF000410948079104910949C9
:102F700053F8042B05910068019302A900F066F84C
:102F8000029B00221A701CB05DF804EB03B070477E
:102F90000C0000200802FFFF2DE9F0478E689E42DA
:102FA00082460C469046994637D88A8912F4906F2B
:102FB00031D0256809696F1A6569022305EB45055B
:102FC00095FBF3F509F101033B449D4238BF1D46D3
:102FD000530530D5294600F021FB064650B90C2395
:102FE000CAF80030A38943F04003A3814FF0FF30BB
:102FF000BDE8F0873A462169FFF79AFFA38923F4D9
:10300000906343F08003A381266165613E44ED1B1C
:103010002660A5604E464E4500D94E463246414692
:10302000206800F093FAA3689B1BA36023681E44EA
:1030300026600020DCE72A4600F04AFB064600280E
:10304000E2D12169504600F09BFAC8E72DE9F04F24
:103050001D468B891F069DB080460C4616460FD52F
:103060000B696BB9402100F0D9FA2060206128B9C2
:103070000C23C8F800304FF0FF30C8E040236361F4
:103080000023099320238DF8293030238DF82A302E
:1030900003954FF0010B37463D4615F8013B0BB148
:1030A000252B3ED1B7EB060A0BD0534632462146BC
:1030B0004046FFF771FF013000F0A480099B5344A4
:1030C00009933B78002B00F09D8000234FF0FF32E6
:1030D000CDE90523049307938DF853301A932F46B7
:1030E000052217F8011B5048FDF772F8049BD0B970
:1030F000D90644BF20228DF853201A0744BF2B2243
:103100008DF853202A782A2A15D0079A2F460020B6
:103110000A25394611F8013B303B092B4DD9B8B18E
:103120000FE02F46B8E7404A801A0BFA00F0184328
:1031300004903D46D3E7039A111D12680391002ABB
:1031400001DB079204E0524243F00203079204932A
:103150003B782E2B0CD17B782A2B33D1039B1A1D65
:103160001B680392002BB8BF4FF0FF330237059363
:103170002E4D397803222846FDF72AF838B140232E
:10318000401B03FA00F0049B034301370493397892
:1031900027488DF8281006227E1CFDF719F8002814
:1031A00038D0244B13BB039B073323F007030833AA
:1031B0000393099B4B4409936DE705FB0232012001
:1031C0000F46A6E700230137059319460A2538461E
:1031D00010F8012B303A092A03D9002BC8D00591E9
:1031E000C6E705FB012101230746F0E703AB009387
:1031F0002246114B04A94046AFF30080B0F1FF3FD7
:103200008146D6D1A3895B063FF535AF09981DB03D
:10321000BDE8F08F03AB00932246074B04A940465C
:1032200000F082F8EAE700BFBC380008C2380008A6
:10323000C638000800000000992F00082DE9F0476B
:1032400091461F468A680B69DDF820809342B8BF1B
:103250001346C9F8003091F8432006460C4612B1D7
:103260000133C9F800302368990642BFD9F800300D
:103270000233C9F80030256815F0060507D104F1BE
:10328000190AE368D9F800209B1AAB4228DC94F8AD
:1032900043302268003318BF012392062DD404F175
:1032A000430239463046C047013020D02368E568E4
:1032B000D9F8002003F00603042B08BFAD1AA36859
:1032C00022690CBF25EAE57500259342C4BF9B1A0D
:1032D000ED184FF000091A344D451AD1002008E0CE
:1032E0000123524639463046C047013003D14FF0E2
:1032F000FF30BDE8F0870135C3E7E1185A1C3020E4
:1033000081F84300224494F8451082F843100233B8
:10331000C5E70123224639463046C0470130E6D092
:1033200009F10109D8E700002DE9F04301F1430C50
:103330000C46097E85B06E291746064698460C9ABB
:1033400000F0B38022D8632936D00AD8002900F0D3
:10335000B980582900F0838004F1420584F84210B6
:1033600032E0642901D06929F6D120681368050686
:1033700003F104012AD51B681160002B03DA2D220A
:103380005B4284F843206F480A2239E0732900F039
:103390009D8008D86F2920D07029DDD1236843F0A3
:1033A0002003236003E0752917D07829D4D178232E
:1033B00084F84530644855E01368191D1B68116096
:1033C00004F1420584F8423001238CE01B6811604F
:1033D00010F0400F18BF1BB2CFE713682568181D07
:1033E0001060280601D51B6802E06806FBD51B8823
:1033F00054486F2914BF0A220822002184F8431080
:103400006568A560002DC0F29580216821F0040157
:103410002160002B3DD1002D40F08E806546082AAA
:103420000BD12368DB0708D5236962689A42DEBFA7
:10343000302305F8013C05F1FF35ACEB05032361B2
:10344000CDF800803B4603AA21463046FFF7F6FE42
:1034500001304DD14FF0FF3005B0BDE8F083394861
:1034600084F84510136821681D1D1B6815600A0645
:103470000BD5CA0744BF41F0200121601BB9226867
:1034800022F0200222601022B7E74D0648BF9BB20F
:10349000EFE76546B3FBF2F102FB1133C35C05F8BD
:1034A000013D0B460029F5D1B9E71368256861692C
:1034B000181D106028061B6801D5196002E06A0615
:1034C000FBD51980002323616546B9E71368191DF0
:1034D00011601D68626800212846FCF779FE08B17A
:1034E000401B606063682361002384F84330A7E7D2
:1034F00023692A4639463046C0470130AAD023689E
:103500009B0713D4E068039B9842B8BF1846A3E713
:1035100001234A4639463046C04701309AD001352A
:10352000E368039A9B1AAB42F2DCEBE7002504F157
:103530001909F5E7002BACD1037884F8423004F187
:1035400042056CE7CD380008DE380008884210B527
:1035500001EB020307D8421E99420AD011F8014B31
:1035600002F8014FF8E78342F5D98118D21AD34205
:1035700000D110BD13F8014D01F8014DF7E700002F
:1035800038B50546002945D051F8043C0C1F002BE6
:10359000B8BFE41800F0D2F81F4A1368104633B9D8
:1035A000636014602846BDE8384000F0C8B8A34204
:1035B0000CD921686218934204BF1A685B68636083
:1035C00004BF521822600460ECE713465A680AB13F
:1035D000A242FAD919685818A0420BD120680144B8
:1035E000581882421960DDD1106852685A6001444F
:1035F0001960D7E702D90C232B60D3E72068211884
:103600008A4204BF11685268626004BF09182160D1
:103610005C60C7E738BD00BFA400002070B5CD1CBA
:1036200025F0030508350C2D38BF0C25002D064666
:1036300001DBA94203D90C233360002070BD00F0E8
:103640007DF8214A1468214691B9204C23681BB9A2
:10365000304600F063F820602946304600F05EF8FE
:10366000431C24D10C233360304600F068F8E4E7B3
:103670000B685B1B18D40B2B0FD90B60CD50CC18EB
:10368000304600F05CF804F10B00231D20F0070029
:10369000C31AD3D05A42E250D0E78C424B6816BFCF
:1036A000636013600C46EBE70C464968CCE7C41C2A
:1036B00024F00304A04205D0211A304600F02EF871
:1036C0000130CFD02560DBE7A4000020A800002057
:1036D000F8B5074614460E4621B91146BDE8F84034
:1036E000FFF79CBF22B9FFF74BFF25462846F8BDE0
:1036F00000F026F8A0420FD221463846FFF78EFF91
:1037000005460028F2D031462246FFF711FC31462B
:103710003846FFF735FFE9E73546E7E738B5064CA9
:103720000023054608462360FDF712FB431C02D127
:10373000236803B12B6038BDCC060020704770476A
:1037400051F8043C181F002BBCBF0B58C018704721
:10375000F8B500BFF8BC08BC9E467047F8B500BF7E
:08376000F8BC08BC9E4670474E
:103768004572726F7220696E20666C61736820778B
:10377800726974696E670A0D000000004A756D7001
:10378800696E6720746F206170706C696361746919
:103798006F6E0A0D000000003D3D3D3D3D3D3D3D45
:1037A8003D3D3D3D3D3D3D3D3D3D3D3D3D3D3D3D41
:1037B8003D3D3D3D3D426F6F74696E673D3D3D3D0A
:1037C8003D3D3D3D3D3D3D3D3D3D3D3D3D3D3D3D21
:1037D8003D3D3D3D3D3D3D3D0A0D00004669726D54
:1037E800776172652076657273696F6E203A20255D
:1037F800642E25642E25640A0D4D6F64696669631D
:103808006174696F6E2064617465203A2025642FA5
:1038180025642F25640A0D00426F6F746C6F616414
:10382800657220696E697469616C697A65640A0DEC
:103838000000000045726173696E6720666C6173F1
:10384800682E2E2E0A0D0000466C61736820657282
:10385800617365642121210A0D000000424C452056
:103868005541525420696E697469617465642121F7
:103878000A0D0000537461727465642055415254F6
:1038880020527820696E746572727570740A0D0022
:103898004445414442454546000000000000000000
:1038A80000000000010203040607080900000000E8
:1038B80001020304232D302B2000686C4C00656640
:1038C8006745464700303132333435363738394169
:1038D800424344454600303132333435363738397F
:0838E800616263646566000083
:0838F000B0C9FF7F01000000D8
:0438F800B50100080E
:0438FC00910100082E
:103900000024F4001000000001000000100000205E
:1039100000000000000000000000000000000000A7
:103920000000000000000000000000000000000097
:103930000000000000000000000000000000000087
:103940000000000000000000000000000000000077
:103950000000000000000000000000000000000067
:103960000000000000000000000000000000000057
:0400000508000DD50D
:00000001FF
